:100000000C9462000C948A000C948A000C948A0070
:100010000C948A000C948A000C948A000C948A0038
:100020000C948A000C948A000C948A000C948A0028
:100030000C948A000C948A000C948A000C948A0018
:100040000C94F7020C948A000C9467030C944103FF
:100050000C948A000C948A000C948A000C948A00F8
:100060000C948A000C948A000000000024002700F1
:100070002A000000000023002600290000000000E4
:10008000250028002B0004040404040404040202D4
:100090000202020203030303030301020408102007
:1000A0004080010204081020010204081020000012
:1000B0000008000201000003040700000000000027
:1000C0000000A90311241FBECFEFD8E0DEBFCDBFD3
:1000D00011E0A0E0B1E0E4EAF5E102C005900D9284
:1000E000AE3DB107D9F724E0AEEDB1E001C01D92FD
:1000F000A73BB207E1F710E0C2E6D0E004C02197C9
:10010000FE010E94F807C136D107C9F70E94110409
:100110000C94D00A0C940000833081F028F48130D4
:1001200099F08230A9F008958730A9F08830C9F09D
:100130008430B1F4809180008F7D03C08091800075
:100140008F7780938000089584B58F7784BD08955C
:1001500084B58F7DFBCF8091B0008F778093B00006
:1001600008958091B0008F7DF9CF1F93CF93DF93D7
:10017000282F30E0F901E255FF4F8491F901E6564E
:10018000FF4FD491F901EA57FF4FC491CC23A9F056
:10019000162F81110E948C00EC2FF0E0EE0FFF1F54
:1001A000E458FF4FA591B4918FB7F894EC911111D9
:1001B00008C0D095DE23DC938FBFDF91CF911F91D4
:1001C0000895DE2BF8CF3FB7F8948091900390917B
:1001D0009103A0919203B091930326B5A89B05C00B
:1001E0002F3F19F00196A11DB11D3FBFBA2FA92FB6
:1001F000982F8827BC01CD01620F711D811D911DB3
:1002000042E0660F771F881F991F4A95D1F708951E
:100210008F929F92AF92BF92CF92DF92EF92FF9216
:100220006B017C010E94E3004B015C01C114D1040D
:10023000E104F104B9F00E94E300681979098A0920
:100240009B09683E73408105910580F321E0C21A45
:10025000D108E108F10888EE880E83E0981EA11C01
:10026000B11CE4CFFF90EF90DF90CF90BF90AF90A4
:100270009F908F9008952FB7F89460918C037091A0
:100280008D0380918E0390918F032FBF08950F935C
:100290001F930E943B0100919403109195032091BC
:1002A000960330919703601B710B820B930B21E037
:1002B000693873418105910508F420E0822F1F9170
:1002C0000F910895AF92BF92CF92DF92EF92FF927B
:1002D0000F931F93CF93DF936C017B018B01040F6E
:1002E000151FEB015E01AE18BF08C017D10759F00A
:1002F0006991D601ED91FC910190F081E02DC6014C
:100300000995892B79F7C501DF91CF911F910F9145
:10031000FF90EF90DF90CF90BF90AF900895FC01D9
:10032000538D448D252F30E0842F90E0821B930B5A
:10033000541710F0CF96089501970895FC01918D00
:10034000828D981761F0A28DAE0FBF2FB11D5D9603
:100350008C91928D9F5F9F73928F90E008958FEFA5
:100360009FEF0895FC01918D828D981731F0828D59
:10037000E80FF11D858D90E008958FEF9FEF0895B0
:10038000FC01918D228D892F90E0805C9F4F821B14
:1003900091098F739927089588E993E00E94C0011D
:1003A00021E0892B09F420E0822F089580E090E07D
:1003B000892B29F00E94CC0181110C940000089532
:1003C000FC01A48DA80FB92FB11DA35ABF4F2C91CA
:1003D000848D90E001968F739927848FA689B789C1
:1003E0002C93A089B1898C91837080648C93938DB8
:1003F000848D981306C00288F389E02D80818F7D5B
:1004000080830895EF92FF920F931F93CF93DF9312
:10041000EC0181E0888F9B8D8C8D98131AC0E88940
:10042000F989808185FF15C09FB7F894EE89FF890F
:100430006083E889F98980818370806480839FBFAD
:1004400081E090E0DF91CF911F910F91FF90EF90AD
:100450000895F62E0B8D10E00F5F1F4F0F731127BD
:10046000E02E8C8D8E110CC00FB607FCFACFE889F8
:10047000F989808185FFF5CFCE010E94E001F1CF9F
:10048000EB8DEC0FFD2FF11DE35AFF4FF0829FB76C
:10049000F8940B8FEA89FB8980818062CFCFCF935C
:1004A000DF93EC01888D8823B9F0AA89BB89E8899C
:1004B000F9898C9185FD03C0808186FD0DC00FB642
:1004C00007FCF7CF8C9185FFF2CF808185FFEDCFC0
:1004D000CE010E94E001E9CFDF91CF910895CF9343
:1004E000880F991FFC01E95FFE4FC08161E08C2FEE
:1004F0000E94B50064EB70E080E090E00E9408018B
:1005000060E08C2FCF910C94B500FB01019000208E
:10051000E9F73197AF01461B570BDC01ED91FC91D8
:100520000280F381E02D0994CF93DF93CDB7DEB73E
:10053000AE01475F5F4F6F81788587E394E00E944B
:10054000FE0767E374E080913504909136040E94C1
:100550008502DF91CF9108958BED91E00E946F02AB
:1005600062E370E080E090E00E9408018BED91E092
:100570000E946F0281E090E090930201809301015C
:100580008BE291E09F938F9385E394E09F938F9309
:100590000E9494021092DF011092DE01109200017D
:1005A00010928A030F900F900F900F900895CF93A1
:1005B000DF930E943D074091DE015091DF019A01D7
:1005C0002F5F3F4F3093DF012093DE019A01220F0E
:1005D000331FE901C052DE4F24E030E040E050E03C
:1005E0000E94950779836883DF91CF9108951F92C8
:1005F0000F920FB60F9211242F933F938F939F93D7
:10060000AF93BF9380918C0390918D03A0918E0343
:10061000B0918F0330918B0323E0230F2D3758F5D2
:100620000196A11DB11D20938B0380938C039093A1
:100630008D03A0938E03B0938F03809190039091CC
:100640009103A0919203B09193030196A11DB11D56
:100650008093900390939103A0939203B09393039C
:10066000BF91AF919F918F913F912F910F900FBEAE
:100670000F901F90189526E8230F0296A11DB11D1B
:10068000D2CF1F920F920FB60F9211242F933F9348
:100690004F935F936F937F938F939F93AF93BF938A
:1006A000EF93FF9388E993E00E94E001FF91EF91BF
:1006B000BF91AF919F918F917F916F915F914F917A
:1006C0003F912F910F900FBE0F901F9018951F9282
:1006D0000F920FB60F9211242F938F939F93EF9346
:1006E000FF93E091A803F091A9038081E091AE030C
:1006F000F091AF0382FD1BC090818091B1038F5FA9
:100700008F732091B203821741F0E091B103F0E0C2
:10071000E856FC4F958F8093B103FF91EF919F9125
:100720008F912F910F900FBE0F901F901895808181
:10073000F4CFCF93DF93CDB7DEB7AE01475F5F4F06
:1007400069E271E087E394E00E94FE07DF91CF91B8
:10075000089510929B0310929A0388EE93E0A0E014
:10076000B0E080939C0390939D03A0939E03B0936D
:100770009F038BE191E0909399038093980385EC1C
:1007800090E09093A5038093A40384EC90E0909371
:10079000A7038093A60380EC90E09093A903809335
:1007A000A80381EC90E09093AB038093AA0382ECC2
:1007B00090E09093AD038093AC0386EC90E090932F
:1007C000AF038093AE031092B1031092B203109264
:1007D000B3031092B40388E993E0909336048093B6
:1007E0003504E7E3F4E0119284E0E73BF807D9F73A
:1007F00089E291E09F938F9385E394E09F938F9399
:100800000E9499030E943B016093940370939503A7
:1008100080939603909397030F900F900F900F90F3
:100820000895789484B5826084BD84B5816084BD68
:1008300085B5826085BD85B5816085BD80916E007E
:10084000816080936E0010928100809181008260AF
:1008500080938100809181008160809381008091EC
:1008600080008160809380008091B10084608093DB
:10087000B1008091B00081608093B00080917A00D7
:10088000846080937A0080917A00826080937A00FD
:1008900080917A00816080937A0080917A008068EC
:1008A00080937A001092C100E091A803F091A9030F
:1008B00082E08083E091A403F091A5031082E0918F
:1008C000A603F091A7038FEC80831092B003E09110
:1008D000AC03F091AD0386E08083E091AA03F09130
:1008E000AB03808180618083E091AA03F091AB0328
:1008F000808188608083E091AA03F091AB038081BE
:1009000080688083E091AA03F091AB0380818F7DA2
:10091000808366E371E088E993E00E9485026FE4DA
:1009200071E088E993E00E94850282E591E09F935F
:100930008F9385E394E09F938F930E949402C7E086
:10094000D1E00F900F900F900F900FE011E0899180
:1009500099919C013327F901E656FF4F44912A579C
:100960003F4FF9012491222399F030E0220F331FE9
:10097000F901E859FF4FA591B491F901E458FF4FEF
:10098000259134912FB7F894EC91E42BEC932FBF81
:1009900060E00E94B500D8018D919D918D0199274D
:1009A000FC01E656FF4F24918A579F4FFC0184912A
:1009B0008823C9F090E0880F991FFC01E859FF4F88
:1009C000A591B491FC01E458FF4F459154919FB714
:1009D000F8943C91822F809583238C93DA01EC91DB
:1009E0002E2B2C939FBFB1E0CF30DB0709F0AFCFA8
:1009F00080E480937C0080917A00806480937A0008
:100A000080917A0086FDFCCF60917800709179002A
:100A1000072E000C880B990B611571058105910556
:100A200011F00E948C07C4E0D0E061E082E00E94F7
:100A3000B50061E083E00E94B50061E084E00E94BF
:100A4000B50061E085E00E94B5006CE271E080E0F5
:100A500090E00E94080160E082E00E94B50060E042
:100A600083E00E94B50060E084E00E94B50060E091
:100A700085E00E94B5006CE271E080E090E00E94A9
:100A80000801219791F6C5E3D4E08091DE019091B1
:100A9000DF018436910544F40E94D7020E94D702F8
:100AA0000E94D7020E94D70281E080938A0314E655
:100AB000C12E11E0D12E80918A03882309F484C1CC
:100AC000809102018F93809101018F93DF92CF92E9
:100AD000DF93CF930E94940268EB7BE080E090E08C
:100AE0000E940801B0EEEB2EB1E0FB2E0F900F90AC
:100AF0000F900F900F900F9010E000E08091DE01BA
:100B00009091DF010817190704F5D701ED91FD91C8
:100B10007D01EE0FFF1FE95FFE4FB08061E08B2D7E
:100B20000E94B50064EF71E080E090E00E9408014F
:100B300060E08B2D0E94B50068EC70E080E090E0F2
:100B40000E9408010F5F1F4FD9CF81E08093000101
:100B50000E943B01609394037093950380939603E6
:100B6000909397030E9447011F928F9387E791E02C
:100B70009F938F93DF93CF930E9494020F900F90D7
:100B80000F900F900F900F9058E8452E51E0552E82
:100B90006CE9662E61E0762E88248394912C0E9465
:100BA0004701811104C08091000181111AC00E9487
:100BB0004701882309F47FCF87EC91E09F938F93BF
:100BC000DF93CF930E94940264EF71E080E090E0A5
:100BD0000E9408010E94AC020F900F900F900F909E
:100BE00066CF02E713E04FE0A42E41E0B42EF12CD3
:100BF000E12CD5012D913D915D013327F901E2559D
:100C0000FF4F8491F901E656FF4F2490F901EA570E
:100C1000FF4F34903320E1F081110E948C00E32DCE
:100C2000F0E0EE0FFF1FEE58FF4FA591B491EC914D
:100C3000D8018D919C9111972E2251F09C01225048
:100C400031092230310508F0B9C08D929C9287C0DD
:100C5000F801808191818230910508F08BC00E945B
:100C60003B01D80112962D913D914D915C911597C4
:100C7000621B730B840B950B6D32714081059105DE
:100C800008F46DC082E090E0F80191838083FF92C8
:100C9000EF925F924F92DF93CF930E9494020E9453
:100CA0003B01F80162837383848395830E943B0137
:100CB00060939403709395038093960390939703A6
:100CC000C7010E946F0280917003909171039C0193
:100CD0002F5F3F4F3093710320937003880F991F4C
:100CE000FC01E855FD4FF182E08280529E4F0F904B
:100CF0000F900F900F900F900F90DC018D919C91B1
:100D0000E816F90611F00E94AC02209170033091B0
:100D100071038091DE019091DF0128173907F9F402
:100D200088EE93E00E946F02809101019091020190
:100D3000019690930201809301019F938F937F927C
:100D40006F92DF93CF930E9494020E94D702109279
:100D500000010F900F900F900F900F900F90FFEFEA
:100D6000EF1AFF0A0A5F1F4F24E0E216F10409F0B0
:100D700040CF15CF029799F70E943B01D8011296F8
:100D80002D913D914D915C911597621B730B840BD6
:100D9000950B613D77408105910508F383E090E074
:100DA000F80191838083FF92EF92A6EBB1E0BF93AD
:100DB000AF93DF93CF930E949402CBCF019779F644
:100DC000F80111821082CBCF80E090E0892B09F4EA
:100DD0005CCE0E94CC01882309F457CE0E9400000B
:100DE00054CE8F929F92AF92BF92CF92DF92EF92AA
:100DF000FF92CF93DF93EC01688179818A819B8197
:100E0000611571058105910521F464E279ED8BE5A9
:100E100097E02DE133EF41E050E00E949507490152
:100E20005A019B01AC01A7EAB1E40E94B4076B012F
:100E30007C01ACEEB4EFA50194010E94C207C60E7E
:100E4000D71EE81EF91EF7FE06C081E0C81AD108B9
:100E5000E10880E8F80AC882D982EA82FB82C701E9
:100E6000B6019F77DF91CF91FF90EF90DF90CF9009
:100E7000BF90AF909F908F9008958F929F92AF9266
:100E8000BF92CF92DF92EF92FF9260910301709137
:100E9000040180910501909106016115710581059C
:100EA000910521F464E279ED8BE597E02DE133EFD4
:100EB00041E050E00E94950749015A019B01AC01B5
:100EC000A7EAB1E40E94B4076B017C01ACEEB4EF79
:100ED000A50194010E94C207C60ED71EE81EF91E86
:100EE000F7FE06C081E0C81AD108E10880E8F80AD8
:100EF000C0920301D0920401E0920501F092060134
:100F0000C701B6019F77FF90EF90DF90CF90BF9021
:100F1000AF909F908F9008956093030170930401A8
:100F200080930501909306010895052E97FB1EF40A
:100F300000940E94AC0757FD07D00E94C70707FC2A
:100F400003D04EF40C94AC07509540953095219504
:100F50003F4F4F4F5F4F08959095809570956195E5
:100F60007F4F8F4F9F4F08950E94E907A59F900DD7
:100F7000B49F900DA49F800D911D11240895B7FF7B
:100F80000C94B4070E94B407821B930B0895A1E24E
:100F90001A2EAA1BBB1BFD010DC0AA1FBB1FEE1FF3
:100FA000FF1FA217B307E407F50720F0A21BB30B3E
:100FB000E40BF50B661F771F881F991F1A9469F7BA
:100FC00060957095809590959B01AC01BD01CF0116
:100FD0000895A29FB001B39FC001A39F700D811D12
:100FE0001124911DB29F700D811D1124911D089532
:100FF000EE0FFF1F0590F491E02D0994AEE0B0E0F4
:10100000E4E0F8E00C94A70A8C0186E08C831A8354
:1010100009838FEF9FE79E838D83CE0101960E9407
:101020001B082F813885020F131FF80110822E969E
:10103000E4E00C94C30AABE0B0E0E1E2F8E00C9429
:10104000990A7C013B018A01FC0117821682838187
:1010500081FFC8C1CE0101965C01F7019381F301C4
:1010600093FD859193FF81913F01882309F453C13A
:10107000853239F493FD859193FF81913F0185324B
:1010800029F4B70190E00E940B0AE7CF912C212CA4
:10109000312CFFE1F31538F08B3211F190F48032EE
:1010A00009F1833229F137FC3CC020ED280F2A30AA
:1010B00050F536FE20C08AE0989E200D1124922E15
:1010C00006C08D3291F0803371F7689430F8F301E7
:1010D00093FD859193FF81913F018111DACF21C06A
:1010E000689431F8689432F8F2CF689433F8EFCF0F
:1010F000689434F8ECCFEAE02E9E200D1124222EC5
:10110000689435F8E4CF8E3229F436FC04C1689433
:1011100036F8DDCF8C3619F4689437F8D8CF883696
:10112000B1F2982F9F7D95549330E0F08336A1F172
:101130008337C1F1833509F063C02801F2E04F0E17
:10114000511CF801C080D180692D70E036FC02C0CE
:101150006FEF7FEFC6010E94F5094C01689437F8E4
:1011600082010AC00C5F1F4FFFE3F9838824839438
:10117000912C6501E89437F833FE2DC0522C811470
:10118000910471F5552009F468CFB70180E290E031
:101190000E940B0A5A94F6CFF801808189830E5F72
:1011A0001F4FE4CF2801F2E04F0E511CF801C08020
:1011B000D180692D70E036FC02C06FEF7FEFC60171
:1011C0000E94000A4C018201D5CFB70180E290E075
:1011D0000E940B0A2A942814190409F0B0F7CECF04
:1011E000F60137FC859137FE81916F01B70190E0E0
:1011F0000E940B0A51105A94F1E08F1A9108BFCF48
:10120000843619F0893609F077C0F80137FE6BC0D3
:1012100060817181828193810C5F1F4FF32DFF7676
:101220003F2E97FF09C090958095709561957F4FEF
:101230008F4F9F4F689437F82AE030E0A5010E9455
:101240003B0AC82ECA188C2C432C36FE0CC0E894DE
:1012500040F8C91440F434FE05C032FC03C0F32D3D
:10126000FE7E4F2E892C44FE95C0FE01EC0DF11D33
:101270008081803309F087C0242D297E422E842D61
:101280008870582E43FC95C040FE8FC09C2C821461
:1012900018F42C0C922C981844FE91C0B70180E3EE
:1012A00090E00E940B0A42FE09C088E790E041FEF0
:1012B00002C088E590E0B7010E940B0AC91408F447
:1012C0008AC0CA94D12C9FEFC91AD90ACA0CDB1C58
:1012D000F60182916F01B70190E00E940B0AAC14F5
:1012E000BD04B1F74FCF60817181072E000C880BD0
:1012F000990B0E5F1F4F92CFD32CE894D4F82AE0BD
:1013000030E0853739F1232D297FD22E8F3601F138
:1013100048F48835A9F0F701868197812B96E2E1A0
:101320000C94B50A803749F08837A9F7D4FE02C07B
:101330006894D2F820E130E00DC06894D4F8F6CF7C
:1013400034FE03C0822F8660D82E20E132E002C036
:1013500028E030E0F801D7FE0FC060817181828102
:1013600093810C5F1F4FA5010E943B0AC82ECA182B
:101370003D2CE89437F867CF6081718190E080E080
:101380000E5F1F4FF0CF42FC02C0839478CF83944E
:10139000839475CF842D867809F471CFF6CFB70189
:1013A00080E290E00E940B0A83948214C0F3512CD7
:1013B00073CF522C5818821408F46ECFF8CF842DB6
:1013C000867809F47BCF8BE241FE80E247FC8DE218
:1013D000B70190E071CFB70180E390E00E940B0A63
:1013E0009A946CCF8FEF9FEF99CFFC0105906150DD
:1013F00070400110D8F7809590958E0F9F1F08952B
:10140000FC016150704001900110D8F780959095D3
:101410008E0F9F1F08950F931F93CF93DF93182F65
:10142000092FEB018B8181FD09C01FEF0FEF812F89
:10143000902FDF91CF911F910F91089582FF14C0DB
:101440002E813F818C819D81281739073CF4E881EA
:10145000F981CF0101969983888310838E819F81C2
:1014600001969F838E83E3CFE885F985812F0995C7
:10147000892BA1F3DACFFA01AA27283051F12031C4
:1014800081F1E8946F936E7F6E5F7F4F8F4F9F4F18
:10149000AF4FB1E03ED0B4E03CD0670F781F891F5A
:1014A0009A1FA11D680F791F8A1F911DA11D6A0F28
:1014B000711D811D911DA11D20D009F468943F91DB
:1014C0002AE0269F11243019305D3193DEF6CF01DA
:1014D0000895462F4770405D4193B3E00FD0C9F7A0
:1014E000F6CF462F4F70405D4A3318F0495D31FD0D
:1014F0004052419302D0A9F7EACFB4E0A695979560
:10150000879577956795BA95C9F700976105710535
:1015100008959B01AC010A2E06945795479537957F
:101520002795BA95C9F7620F731F841F951FA01DD9
:1015300008952F923F924F925F926F927F928F9277
:101540009F92AF92BF92CF92DF92EF92FF920F9352
:101550001F93CF93DF93CDB7DEB7CA1BDB0B0FB65C
:10156000F894DEBF0FBECDBF09942A883988488819
:101570005F846E847D848C849B84AA84B984C884AF
:10158000DF80EE80FD800C811B81AA81B981CE0FA6
:10159000D11D0FB6F894DEBF0FBECDBFED0108958B
:0415A000F894FFCFED
:1015A4000101000100000002000300040005000620
:1015B4000007000800090000000000020262018F19
:1015C400014F02C0019E01B2012000596F75204CE9
:1015D4006F7374210A004D656D6F7279426C696E88
:1015E4006B207374617274696E6720757021000DCD
:1015F4000A004A75737420636865636B696E672EAD
:101604002E2E0A005374617274696E67206C6576BD
:10161400656C2025690A004469642074696D656FEE
:1016240075743F2025690A00427574746F6E2070CA
:101634007265737365643A2025690A004C657665A2
:101644006C205570212E204E6577204C6576656C94
:101654003A2025690A00427574746F6E2068656CBF
:10166400643A2025690A00536F7272792C20796FCD
:0E167400752074696D6564206F757421000027
:00000001FF
